:0400000080314528DE
:100008007E1480312E008C1E0A280B284328700885
:100018007104031D1028112827280830720673045C
:100028000319172818281D28FF30F207FF30F33D61
:1000380021280130F0000030F10032000F0872066C
:10004800E03972068F0070037104031D2C282D28D7
:1000580041281F30720673040319332834283928BD
:100068000130F2070030F33D3B28F001F101320086
:100078000F087206E03972068F002E008C127E106F
:10008800090080314728803184208031F200803196
:1000980085208031F300F001F1017E1020008031CD
:1000A800552880317A208031803167208031803135
:1000B8007F20803180317220803120009E1700001F
:1000C80063288031452820001E121F081F39403838
:1000D8009F001F08F03906389F00080032008E166E
:1000E8000E16F3308E050E108E1708003E00C3174B
:1000F8002000921308008B170B172E009616080085
:040108001F3400346C
:020000040001F9
:0A000E00EF3FFF3F9F3FFF3FFF3F22
:00000001FF
