:020000040000fa
:080000000002040000000000f2
:020000040000fa
:040008002c030000c5
:020000040000fa
:04000c002c030000c1
:020000040000fa
:040010002c030000bd
:020000040000fa
:040014002c030000b9
:020000040000fa
:040018002c030000b5
:020000040000fa
:04001c002c030000b1
:020000040000fa
:040020002c030000ad
:020000040000fa
:040024002c030000a9
:020000040000fa
:040028002c030000a5
:020000040000fa
:04002c002c030000a1
:020000040000fa
:040030002c0300009d
:020000040000fa
:040034002c03000099
:020000040000fa
:040038002c03000095
:020000040000fa
:04003c002c03000091
:020000040000fa
:040040002c0300008d
:020000040000fa
:040044002c03000089
:020000040000fa
:040048002c03000085
:020000040000fa
:04004c002c03000081
:020000040000fa
:040050002c0300007d
:020000040000fa
:040054002c03000079
:020000040000fa
:040058002c03000075
:020000040000fa
:04005c002c03000071
:020000040000fa
:040060002c0300006d
:020000040000fa
:040064002c03000069
:020000040000fa
:040068002c03000065
:020000040000fa
:04006c002c03000061
:020000040000fa
:040070002c0300005d
:020000040000fa
:040074002c03000059
:020000040000fa
:040078002c03000055
:020000040000fa
:04007c002c03000051
:020000040000fa
:040080002c0300004d
:020000040000fa
:040084002c03000049
:020000040000fa
:040088002c03000045
:020000040000fa
:04008c002c03000041
:020000040000fa
:040090002c0300003d
:020000040000fa
:040094002c03000039
:020000040000fa
:040098002c03000035
:020000040000fa
:04009c002c03000031
:020000040000fa
:0400a0002c0300002d
:020000040000fa
:0400a4002c03000029
:020000040000fa
:0400a8002c03000025
:020000040000fa
:0400ac002c03000021
:020000040000fa
:0400b0002c0300001d
:020000040000fa
:0400b4002c03000019
:020000040000fa
:0400b8002c03000015
:020000040000fa
:0400bc002c03000011
:020000040000fa
:0400c0002c0300000d
:020000040000fa
:0400c4002c03000009
:020000040000fa
:0400c8002c03000005
:020000040000fa
:0400cc002c03000001
:020000040000fa
:0400d0002c030000fd
:020000040000fa
:0400d4002c030000f9
:020000040000fa
:0400d8002c030000f5
:020000040000fa
:0400dc002c030000f1
:020000040000fa
:0400e0002c030000ed
:020000040000fa
:0400e4002c030000e9
:020000040000fa
:0400e8002c030000e5
:020000040000fa
:0400ec002c030000e1
:020000040000fa
:0400f0002c030000dd
:020000040000fa
:0400f4002c030000d9
:020000040000fa
:0400f8002c030000d5
:020000040000fa
:0400fc002c030000d1
:020000040000fa
:040100002c030000cc
:020000040000fa
:040104002c030000c8
:020000040000fa
:040108002c030000c4
:020000040000fa
:04010c002c030000c0
:020000040000fa
:040110002c030000bc
:020000040000fa
:040114002c030000b8
:020000040000fa
:040118002c030000b4
:020000040000fa
:04011c002c030000b0
:020000040000fa
:040120002c030000ac
:020000040000fa
:040124002c030000a8
:020000040000fa
:040128002c030000a4
:020000040000fa
:04012c002c030000a0
:020000040000fa
:040130002c0300009c
:020000040000fa
:040134002c03000098
:020000040000fa
:040138002c03000094
:020000040000fa
:04013c002c03000090
:020000040000fa
:040140002c0300008c
:020000040000fa
:040144002c03000088
:020000040000fa
:040148002c03000084
:020000040000fa
:04014c002c03000080
:020000040000fa
:040150002c0300007c
:020000040000fa
:040154002c03000078
:020000040000fa
:040158002c03000074
:020000040000fa
:04015c002c03000070
:020000040000fa
:040160002c0300006c
:020000040000fa
:040164002c03000068
:020000040000fa
:040168002c03000064
:020000040000fa
:04016c002c03000060
:020000040000fa
:040170002c0300005c
:020000040000fa
:040174002c03000058
:020000040000fa
:040178002c03000054
:020000040000fa
:04017c002c03000050
:020000040000fa
:040180002c0300004c
:020000040000fa
:040184002c03000048
:020000040000fa
:040188002c03000044
:020000040000fa
:04018c002c03000040
:020000040000fa
:040190002c0300003c
:020000040000fa
:040194002c03000038
:020000040000fa
:040198002c03000034
:020000040000fa
:04019c002c03000030
:020000040000fa
:0401a0002c0300002c
:020000040000fa
:0401a4002c03000028
:020000040000fa
:0401a8002c03000024
:020000040000fa
:0401ac002c03000020
:020000040000fa
:0401b0002c0300001c
:020000040000fa
:0401b4002c03000018
:020000040000fa
:0401b8002c03000014
:020000040000fa
:0401bc002c03000010
:020000040000fa
:0401c0002c0300000c
:020000040000fa
:0401c4002c03000008
:020000040000fa
:0401c8002c03000004
:020000040000fa
:0401cc002c03000000
:020000040000fa
:0401d0002c030000fc
:020000040000fa
:0401d4002c030000f8
:020000040000fa
:0401d8002c030000f4
:020000040000fa
:0401dc002c030000f0
:020000040000fa
:0401e0002c030000ec
:020000040000fa
:0401e4002c030000e8
:020000040000fa
:0401e8002c030000e4
:020000040000fa
:0401ec002c030000e0
:020000040000fa
:0401f0002c030000dc
:020000040000fa
:0401f4002c030000d8
:020000040000fa
:0401f8002c030000d4
:020000040000fa
:0401fc002c030000d0
:020000040000fa
:040200002c030000cb
:020000040000fa
:040204002c030000c7
:020000040000fa
:040208002c030000c3
:020000040000fa
:04020c002c030000bf
:020000040000fa
:040210002c030000bb
:020000040000fa
:040214002c030000b7
:020000040000fa
:040218002c030000b3
:020000040000fa
:04021c002c030000af
:020000040000fa
:040220002c030000ab
:020000040000fa
:040224002c030000a7
:020000040000fa
:040228002c030000a3
:020000040000fa
:04022c002c0300009f
:020000040000fa
:040230002c0300009b
:020000040000fa
:040234002c03000097
:020000040000fa
:040238002c03000093
:020000040000fa
:04023c002c0300008f
:020000040000fa
:040240002c0300008b
:020000040000fa
:040244002c03000087
:020000040000fa
:040248002c03000083
:020000040000fa
:04024c002c0300007f
:020000040000fa
:040250002c0300007b
:020000040000fa
:040254002c03000077
:020000040000fa
:040258002c03000073
:020000040000fa
:04025c002c0300006f
:020000040000fa
:040260002c0300006b
:020000040000fa
:040264002c03000067
:020000040000fa
:040268002c03000063
:020000040000fa
:04026c002c0300005f
:020000040000fa
:040270002c0300005b
:020000040000fa
:040274002c03000057
:020000040000fa
:040278002c03000053
:020000040000fa
:04027c002c0300004f
:020000040000fa
:040280002c0300004b
:020000040000fa
:100400000f0021000e7f21000e0188000000000077
:10041000000020000000e000020032000001200087
:100420002002880014000700ca0207000000e00054
:1004300003003a00a06b21000100200002003700f9
:100440000000200001002000810f70000100320038
:100450000f000700000020000000e0000200320052
:100460000000020000000000121602000000000060
:100470000040da000000fe00200020000000e00044
:1004800002003200100020009001880000000600e9
:10049000a1028800800478000000eb001f003700f4
:1004a000e284440054a0b4009905ba00e2844400f8
:1004b00054a0b4009906ba00e284440054a0b400e9
:1004c0000006eb00476fde00fd07b200ae018800ba
:1004d000636ce10003003a000ad801000000eb0061
:1004e0000e003700606ce10008003a00004deb00a0
:1004f0000a05e800020039003420ec000af0a000f0
:100500008b05e900f9ff3e00040037006168e10057
:10051000010032000086eb000b00070019c7ba008b
:100520000e04e0001905ba0003003a000a00e000da
:10053000dbff3a0000000600fe07b200ae028800b2
:100540008a047800f5ff37000cd0a300e20f4d00bd
:100550001c003b0089027800354dba000a05e8000e
:10056000020039003420ec000af0a0008b05e900fd
:100570000f003200254dba000a05e80002003900dc
:100580003420ec000af0a0008b05e90008003200de
:100590000c00e0000600320015cdba000a05e800a4
:1005a000020039003420ec000af0a0008b05e900bd
:1005b0008984e80054a0b4000b00e000e2ff3a0098
:1005c000000006009902ba00055d78008b05e9007d
:1005d000f7ff3200c82ade00055d78008b05e900d0
:1005e000f3ff32000c00e000f1ff320019ddba0029
:1005f000eeff3700809fbe000000fa0001a8a900ae
:1006000011e08000f00f2000808f500006003a00bb
:1006100021e3a90000e080000118800001087800b3
:1006200021e3a9000900370000e0800001188000e4
:100630000108780000e080000080e80000e0880009
:1006400010e080000000e80010e088000080fa0060
:100650004f00be00004006000040da000000fe002f
:10066000f6874700889fbe008a9fbe008c9fbe0011
:100670008e1f7800f1af9f008204780011002000e7
:100680000008dd004f04de00000044000084d100bb
:100690000000200001f82300a4000700ffa8970035
:1006a000800878000000eb00900098006140b900dd
:1006b0004e0207000001be00b0fd2000910424009e
:1006c0005203070080057800010578000b007800d0
:1006d0008a0078007b060700b0b79f00a1b79f0093
:1006e0000900e0008a0032000a01be000300780021
:1006f000820078002a0707000006be000883e90090
:100700007c003300ffab9700648543008c047800c5
:100710000d047800bfb597002fb797000b00780045
:100720008e00780086bf9f0080000700000d7800d3
:1007300009007800880078007c0007001005980008
:1007400064054500bfb097002fb097000101780005
:10075000800178000b0078008e0078000a04070002
:100760000002be000c01be00c8b79f00090078005f
:1007700088007800e4b79f00f5b79f0002040700e7
:100780000001be006fb29700ffb297000400be00e8
:100790003002070090b79f0081b79f00bfb097005d
:1007a0002fb09700010178008001780009027800dd
:1007b0008800780004047800810478000800be00f6
:1007c000f10307000004be000c01be000b0278001c
:1007d0008e007800c4b79f00d1b79f004fb097003c
:1007e000dfb09700e80307000801be0022020700ff
:1007f00080047800010478000fbb97000603e9002d
:100800003c0033009fb597000fb797000b007800ae
:100810008e00780086bf9f0044000700000d78001e
:100820000900780088007800400007001005980053
:1008300064054500bfb097002fb097000101780014
:10084000800178000b0078008e007800ce0307004e
:100850000002be000c01be00c8b79f00090078006e
:1008600088007800e4b79f00f5b79f00c603070033
:100870000001be006fb29700ffb297000400be00f7
:10088000f401070090b79f0081b79f00bfb09700a9
:100890002fb09700010178008001780009027800ec
:1008a0008800780004047800810478000800be0005
:1008b000b50307000004be000c01be000b02780067
:1008c0008e007800c4b79f00d1b79f004fb097004b
:1008d000dfb09700ac0307000801be00e601070087
:1008e00080047800010478000fbb97000603e9003c
:1008f000c4ff3b007fa897004f0778004f06be005b
:100900004f05be004f04be006f01b100000006009d
:100910000a01be000300780082007800a0060700ec
:100920000006be000df0a20074ff3700e887470004
:10093000889fbe008a9fbe008c9fbe008e1f7800dd
:100940000005be0002002000037024008e03070093
:1009500080047800010478006011b8000a00be002d
:100960007f0107000000e000370035000900780033
:10097000880078004c0607007b0107000005be00d8
:100980000a00be00990107000006be000200200018
:1009900003f023007c0307000007780081bf9f005d
:1009a000010178000e007800820078003e06070002
:1009b000e0b79f00f1b79f000c01be00090278006c
:1009c0008800780004037800810378000600be00e8
:1009d000a00107000004be000200200003f0230075
:1009e0000800be005e0107000000e0007b0034004c
:1009f0000200200003f823000c00be009e01070047
:100a0000590107000005be008a0178000b0178003b
:100a10000300780082007800f3ff2700830f500066
:100a2000e08f580002003400f0ff27000100200092
:100a30004f0778004f06be004f05be004f04be00b2
:100a40008f00b100000006000900780088007800df
:100a50005d050700440107000006be000c00be0053
:100a6000620107000005be000901780088017800d6
:100a70000a00be00600107000000e000090032002b
:100a80000200200003f823000a00be0071010700e5
:100a9000350107000006be000c00be005301070030
:100aa0000005be000200200003f023000a00be0083
:100ab000350307000007780081bf9f00010178001f
:100ac0000e00780082007800f7050700e0b79f006d
:100ad000f1b79f000a01be00090278008800780083
:100ae00004037800810378000600be005901070066
:100af0000004be000200200003f023000800be0036
:100b0000170107000000e000170034000200200079
:100b100003f823000a00be00570107001201070076
:100b20000006be008c0178000d01780003007800fb
:100b30008200780002002800f3ff2f00820f50008f
:100b4000838f5800baff3d000200be004f077800b7
:100b50004f06be004f05be004f04be008f00b1001f
:100b600000000600b8ff37000200200003f0230059
:100b7000880078000900780001027800800278007f
:100b80000400be00f40007000000e000e5ff3a00aa
:100b90006fb19700ffb197008e0278000fba9700ef
:100ba00005007800840078002a0107000001be00db
:100bb00031010700ec0007000000e000d9ff32001f
:100bc0000200200003f823000a00be002a010700eb
:100bd000e50007000006be00d2ff3700020020003b
:100be00003f02300880078000900780001027800f3
:100bf000800278000400be00d70007000000e0007b
:100c000081ff3a006fb19700ffb197008e02780024
:100c10000fba970005007800840078000d010700e6
:100c20000001be0014010700cf0007000000e00033
:100c300075ff32000200200003f823000c00be0004
:100c40000d010700c80007000005be006eff370059
:100c5000889fbe008a9fbe008c9fbe008e1f7800ba
:100c60004400f800070f2000270288003200f80037
:100c7000811f78000f07780007f02f000338e1008c
:100c80004b00320003d0fe00040180003de08000f4
:100c900019002000804cdd008904d00004002000f1
:100ca000058021000400e00004003c000f854400a2
:100cb0000800310005055500060031008d84440010
:100cc000040031008f844400020031008486540007
:100cd0003000390019002000804cdd001300200096
:100ce00002047800800678008904d100424edd00bd
:100cf000010578000302e9000480080020000000dc
:100d0000000000008a0546004218dd000902e900e3
:100d10000480080018000000000000004620c30006
:100d20003200f80001c0fe00000000003b0252004b
:100d30003200f900df35c100080440001381c20011
:100d40003200f80001c0fe0000000000ab8252003b
:100d5000264dc5003e85c400bb00cd00bb80cd0044
:100d60003a00ca002a80ca003200f9000700c90010
:100d70000580c900ba00cd00ba80cd000a05460042
:100d8000020478008301d0008d06e900d6ff3c0004
:100d90002f00370019002000804cdd000f04780080
:100da0008906e9000d800900b21f7800080178006b
:100db00001c0fe0019002000804cdd00130020005f
:100dc00002047800800678008904d100424edd00dc
:100dd000010578000302e900048008001800000003
:100de000000000008a0546004218dd000902e90003
:100df0000480080010000000000000004620c3002e
:100e00003b025200df35c100080440001381c200dc
:100e1000ab825200264dc5003e85c400bb00cd000c
:100e2000bb80cd003a00ca002a80ca000700c90072
:100e30000580c900ba00cd00ba80cd000a05460081
:100e4000020478008301d0008d06e900deff3c003b
:100e50008e0778004f0078003200f9004400f90056
:100e60004f0778004f06be004f05be004f04be007e
:100e7000000006003200f80001c0fe004600f80045
:100e80005000f800022020003202880002002800f2
:100e9000130020008019dd000281710082028800a9
:100ea00001007800010178002600200047002000a2
:100eb0008301e90003800800070000000110e10041
:100ec000040034001102be0092087800e2307b007a
:100ed0000489be0087804000121978005000f90094
:100ee0004600f9003200f900000006003200f80068
:100ef00001c0fe00821f7800849fbe008a1f780018
:100f00004400f800040f2000240288000105780046
:100f10000601c3000080e900008008000300000013
:100f2000000000000505f0000401f1003200cd00d2
:100f30000505f0001001f1003200cd004400f90079
:100f40004f0578004f02be004f0078003200f900d4
:100f50000000060000000500140020009203370086
:100f6000f4ff2f00900337000001be0024000700ab
:100f70000470a70003f0a1006509b100160032005b
:100f80000d0035006828e10006003500f0ff2f0055
:100f9000f1ff27000300e00013003b0001002800e0
:100fa0000000050000004000818048008502e90043
:100fb000fcff3a0008003700f88f420002003c00b6
:100fc0008000eb00000005008100d1000080d3000c
:100fd0008502e800fcff3a000300e00002003b004d
:100fe00060001000e0801800000006004f89de005d
:100ff0008201780087033700040020006a0337006d
:10100000c70ade00f107b200f50fb2000800320097
:10101000e1cf4200020032000170a0002400050070
:10102000810f700001003200040805004400050033
:10103000810f700002003a00140005008502e900eb
:101040000000400081c04800fcff3b000170a00090
:101050002400050007f82700078361000638e10037
:1010600004003a00f70720008783610087037100be
:1010700001003a0003f0a200889fbe008a9fbe00d4
:101080008c9fbe00470ade000480a100c71ade0064
:101090000580a100070028000785600087856100a2
:1010a000f70f20000720e1009e0032000728e10032
:1010b0009c003200010678000400e000b400320019
:1010c000f7072000878060000170a0000500e000a5
:1010d000c0003200f7072000878161000370a00084
:1010e000050652000f003a000b50e1000b003200e1
:1010f0000308e10002003a000200e1007e00320035
:101100000204500083845800040031000001fd00f7
:101110008101fd008402fd008a05fd006044b800e5
:10112000210037000520e10005003d000001fd0021
:101130008101fd008402fd008a05fd0005065200c4
:101140007a60e100050035000170a1004722dd0052
:10115000848070008a807000630037006044b800ab
:10116000ef02660007ff2f00070666000500e0009b
:1011700006003400f08312008714dd000511de0044
:10118000071bdd00060171008519de007060e100bb
:101190000500350009047800820478000301780016
:1011a0008001eb00700656000b50e10003003a008e
:1011b00002004000838048000400370060041400ef
:1011c000e0841c0002005800838058000188a300be
:1011d000060032008100d1000080d3008984d30052
:1011e0000884d3000402e800270037000178a30038
:1011f00025003a000100e000030032008186cf00a4
:10120000698656000a0037008c0020000000e000cc
:1012100004003a0009007800880478000004eb001c
:10122000700252008086cf000d0646000c06e900d1
:101230007060e10006003500800078000900780049
:10124000880478000004eb0070065600700252001b
:101250000c00e0000c0034008c08dd00f0031600e8
:101260000703de00868070000c00dd00074bde0007
:10127000060070008c4cdd000743de00868474009d
:101280000c44dd000c0252006120e100200035001a
:10129000610160000700280087816400f7ff2700d4
:1012a00087836400070374000300e0000600320037
:1012b00082037300040032000000e800e080480070
:1012c0000188a3000e003a00f70f20000720e1007c
:1012d0004a003d000170a1004722dd00810072003c
:1012e0008a8070000000be004f06be004f05be00a1
:1012f0004f04be00000006006000b800faff37008f
:101300008100d1000080d3000402e800eeff370026
:101310000401780089017400a10107008a8070002f
:10132000f1ff3700f7010700070278000001fd0018
:101330008101fd00f3010700870278008503720038
:101340000778a300040032000001fd008101fd00c8
:1013500006020700e4ff3700850362000768a30068
:10136000080032000b50e10003003200f0ff2f00b4
:10137000f1ff2700dcff37000001fd008101fd00c7
:10138000d9ff37000468a300d7ff3200faff370007
:10139000f8ff2700888360000b003a000000e0009f
:1013a00009003a0083036400828373000200320064
:1013b0000200be00ccff37000b50e100ceff3a0028
:1013c0000200be00c8ff3700140020008100640046
:1013d0003eff3700f8ff27008883610004003a00d1
:1013e0000200e00002003a008c007800beff3700e7
:1013f000150020008301640039ff370001f8270041
:101400000000200081007500b7ff3700889fbe00f4
:101410008a9fbe008c9fbe001b0020000202be00ff
:101420000586680006002800060666004709de00fb
:10143000f20fb200820032000243e8008000320066
:10144000c729de00f30fb2007d0032000343e8003d
:101450007b003200f107b2000170a000f507b20076
:101460000570a000c708dd004903de00868070001b
:101470004700dd00c72add004923de0086827200b6
:101480004722dd0003055100040350008583580006
:101490000300310000004000818048000a05e90097
:1014a0008c1f78008a9fbe00040050008580580081
:1014b0000402420085824a0000004000818048000a
:1014c0000005eb000004be006033b8000406be0057
:1014d0000d48e10056003100110009004dccd80044
:1014e0000c01b8000d02b8008481410060824a00fe
:1014f0008283530003045c0084845c0060055d000b
:101500000a00e00025003a00800578000d40e10067
:1015100049003100880078000700780011000900b8
:101520004d88d8000c01b8000d02b800848141003c
:1015300060824a006003110083835b0004045c0046
:10154000e0845c000900e00021003a004f01be0089
:101550000300e0002b003200e30160000706730087
:101560008c81710001003200640070004200de00d6
:101570004e5edd000c007000c258de0001e0a000ed
:1015800083010700cf017800818071004f06be0003
:101590004f05be004f04be00000006008c834300d0
:1015a0000d044c00e0844c0060054d000000e90093
:1015b0000a00e000d4ff32008c8343000d044c008d
:1015c000e0844c0060054d000000e900ceff3700cc
:1015d0000c0343008d834b0060044c00e0844c00fe
:1015e0000000e9000900e000d8ff32000c034300ce
:1015f0008d834b0060044c00e0844c000000e90047
:10160000d2ff37004200de004e5edd000c007000ad
:10161000c258de0001e0a000cf0178000300e00026
:10162000daff320060001000e0801800d7ff3700ba
:10163000f0ff2f00aaff3700f0ff2f00b9ff37009f
:101640000404be002f010700870678000004fd0097
:101650008104fd002b010700078366000678a300c4
:10166000030032000960a7000800be002c0037000c
:101670000d78a300020032000800be0028003700e9
:101680000778a30026003a0001f0a10009f0a100ac
:101690000668a30003003200f1ff2700f0ff2f00cf
:1016a000baff37000d68a300030032000800be0037
:1016b0008c807000b5ff37000768a30007003a0070
:1016c0000648a30003003200f1ff2700f0ff2f00bf
:1016d000aeff37000d48a300030032006000b800e1
:1016e0008c807000a9ff37000748a3000400320077
:1016f00001f82700000020008c807000a3ff370055
:10170000760107000004fd008104fd000205780059
:10171000720107000802be008a01780059ff3700f5
:101720000160a0001202200022e0880097ff37002d
:101730000100e000120032000500e000100032005d
:10174000889fbe008a9fbe008c9fbe000006eb00f3
:1017500001f8a3000300320060001000e0801800d0
:101760000cf0a00005f8a300030032006002120094
:10177000e0821a000cf0a2008005eb0041ff370068
:101780006000b8000200050003836800070028001d
:1017900007036300470ade000480a100c71ade00c9
:1017a0000580a100f70f20000720e1004200320071
:1017b0000728e10040003200889fbe008a9fbe00db
:1017c0008c1f7800f107b200f307b2000400e000bc
:1017d000640032000170a0000500e00068003200e3
:1017e0000370a00085054200eb07b1000204b800b9
:1017f0000302b8008484440060854a00020ab800ed
:10180000848444000a854a00030ab80004054500a0
:10181000040033000804d0008984d2000a85d20075
:101820008b05e9006158e1003d0035000210200001
:10183000090161000308200089816100f707200089
:101840008783640008867300c84cde00c853dd003f
:10185000878474004855de000300e0000600320073
:1018600082037600040032008904e80060054d0020
:101870000a88a3000c003a00f70f20000758e10087
:1018800044003d000a70a100c75ddd000a857500b7
:101890008a007300090078004f0678004f05be00eb
:1018a0004f04be00000006000a05d1008984d30061
:1018b0008b05e800f0ff3700881f780006047800e9
:1018c00090000700070278000001fd008101fd0083
:1018d0008c00070087027800850372000778a30058
:1018e000050032000001fd008101fd009f0007009e
:1018f0004f04780000000600850372000748a3002b
:1019000003003200f0ff2f00f1ff2700f8ff37003f
:101910000000200001f8270088807000f4ff3700e5
:10192000880178004848dd00808171004848de0069
:10193000c850dd0001007000c850de0006047800c9
:101940000b0178001600070088807000d2ff370076
:101950000500e00005003200170020003a000700f3
:101960009dff370081037000f9ff3a008600780080
:101970004f0678004f05be004f04be000000050072
:1019800083037100f9ff3200270020002e000700ba
:1019900094ff370001f8270086807000f4ff3700bd
:1019a0000100e00026003200610111007810e10022
:1019b00023003c006022b8007010e10004003500f4
:1019c00080027800010078008000eb007001510077
:1019d0000200e0000900340070031100062add0057
:1019e000822ade008603dd00878272000200de00ac
:1019f000860bdd00070070008208de008481710024
:101a0000f4ff270004826200848171000400280032
:101a1000848262006102600005f0a60000000600fa
:101a200004827100070032000000e800e0804800f6
:101a3000000006000002be006000b800efff3700a3
:101a40006000b80000000600889fbe000004eb00a4
:101a50006138e10016003a000100e00008003a0099
:101a6000c800de004800dd00880020000100e00022
:101a700003003a00c800de004800dd0068044400ae
:101a80008184cf00e9845400060034008908dd0019
:101a9000f08314008703de00878070000900dd00fa
:101aa00009044400610214004f04be000000060057
:101ab0000300e00008003a00c811de004811dd0014
:101ac000880020000300e00003003a00c811de0097
:101ad0004811dd00680444008384cf00e984540089
:101ae000060034008919dd00f08314008713de003e
:101af000878171000911dd0009044400e10214002e
:101b0000e9ff37002700200001f0a70017002000a0
:101b1000470bde00f60fb200040032000643e80077
:101b20000a0032004702b3000000060001037800fb
:101b3000f607b2000603700002003a000703b30084
:101b4000000006008702b3000000060001037800d1
:101b5000f607b20006037000020032000770a00012
:101b6000000006000760a000000006000478a30043
:101b7000040032000578a300030032000168a300ce
:101b800001003a000200be000160a0000000060053
:101b900081017000270032008002eb0001f8a300f1
:101ba0000300320060001000e080180015002000e3
:101bb000f40720000202420020003400f703200056
:101bc0008703600006042000000363000208200071
:101bd000000161004700de00c909dd0000807100de
:101be000c708de000600e00008003200870371002d
:101bf000060032001000b0000180b0000188a30090
:101c000002003200c108de000402e800f107b20061
:101c1000f30f20000320e10003003d004722dd0018
:101c2000810072002900370001f827000000eb0056
:101c3000260037006000b8000000060068021200ad
:101c40007f20e100020034006000b8001f00370070
:101c50006011b8007020e1000400350080017800b8
:101c6000010078008000eb00700252000400e000e8
:101c700009003400f00312000719dd008419de00aa
:101c80000703dd00868171000400de00070bdd0024
:101c9000060070008408de00f7ff270083836300de
:101ca0008703710006002800030363000700320069
:101cb0000700e00003003a00610160000281730048
:101cc000020032001000b0000180b0000500a60044
:101cd0000000060001f0a000000006004f0ade0030
:101ce0004709de00f107b200f20fb2000b0032002c
:101cf000f207b1000170a000c708dd00c901de00d5
:101d0000838070004700dd000400a600000006008c
:101d100060001000e080180000000600810f7000d5
:101d200001003a00000006008182cf000500e000bb
:101d300010003e008082cf00ee8242007028e10059
:101d40000400390007003e00800078000000eb002e
:101d50000e003700708312008600de000500dd00f3
:101d60000a003700708352008600dd000000eb009f
:101d700006003700e28252008508dd007083120001
:101d80000603de00868070000500dd007507b000e8
:101d90000501ea000400a600000006006000100033
:101da000e080180000000600889fbe008a9fbe00e9
:101db000841f78007c0007004f007800110033007a
:101dc000f0ff2f00838f6c0006003b0004056500c8
:101dd0000a00a7000800370009f0a6001000200044
:101de00008003700820f5400838f5c000300390025
:101df0001000200001003e000000200009f0a700b4
:101e00000000ea004f05be004f04be000000e000e5
:101e100000000600881f7800030478000300e0003b
:101e200007003d0060001000e0801800600119000c
:101e3000e081190002003b0001f02d000300370093
:101e40000400070008f0a70001f0a0004f0478008c
:101e500000000600889fbe008a9fbe0000827000be
:101e60000402710004827100260032000004be00ea
:101e70000200be006011b8006b092000950220002e
:101e80000182cf000a0039000541b1000082cf0075
:101e9000070039000541b1000982cf000400390074
:101ea0000541b1000882cf00010039000541b100b1
:101eb00005425200120032000a003b00828171008c
:101ec000610164008100d1000080d3008984d300c7
:101ed0000884d3008b05e8000442e800f7ff3a00cd
:101ee000070037000804440089844c0000004800c3
:101ef000818048008b05e9000442e900f9ff3a00bf
:101f0000030007004f05be004f04be00000006009e
:101f100081002000618055000b003d000b00200077
:101f200061fe2f000100e1001d003400828171007c
:101f3000610164008904d1000884d3000000e80036
:101f4000faff3a0071002000610064000300700095
:101f5000020060000900320061044400e0844c008b
:101f60000988a500050032008b05e8006808e1003b
:101f700002003a008904d1000884d300f20f200047
:101f80000258e10005003d00c75ddd00f907b20021
:101f90008980750008007800000006000bf8270013
:101fa0008b007800000005000004be0014fc070050
:101fb0000003be000405be000200be0010fc0700c6
:101fc000844f7500000006000400fa00889fbe00e0
:101fd0008a9fbe000004be004709de000300200007
:101fe000f20fb200f207b100f60f510031003c00d1
:101ff0000200e0001c003500faff2f00fb07200064
:102000000201e900030033008b85d1000a85d3006b
:10201000fbff37008b8164000a016000e00f510074
:10202000e08f5900230032000200200003b827008f
:1020300011fc0700a0bf9f00b1bf9f00e00f54003c
:10204000e08f5c00020035000a0444008b844c00e1
:102050000a85ea008b85ea008b8064000a00640030
:102060000004be00120037000200200003b8270061
:1020700001fc0700a0bf9f00b1bf9f00e00f54000c
:10208000e08f5c0003003d000800200009002800ec
:10209000070037000800440089804c00e00f500022
:1020a000e08f5800020032000800200009f82300e9
:1020b0000800be004f05be004f04be000080fa00bd
:1020c000000006000800fa000002be00850178004a
:1020d00003f0a10000017800a6fd200097f4230082
:1020e000860f5100878f59000d003e00f4ff2f002e
:1020f000f5972300840f5100858f59005a003e0048
:102100000200200003b82700dbfb0700e0bf9f00b0
:10211000f1bf9f000000200001f82300600037009d
:102120004f0ade0005002000163d2500b7072400f9
:10213000860f5100878f590019003e0036be2c00d3
:1021400067012400860f5100878f59000a0036006e
:102150000400e00004003200b2fd200093042400db
:10216000c5fb070048003700b2fd2000930424009f
:10217000b8fb0700440037000400e0000400320010
:10218000b2fd200093fc2300bbfb07004300370097
:102190000001be00b0fd200091fc230019003700b3
:1021a000561d2300270e2400860f5100878f5900eb
:1021b00016003e00f6dd2e00f70a2400860f5100bf
:1021c000878f59000a0036000400e0000400320046
:1021d000b2fd2000930c2400a7fb0700220037006b
:1021e000b2fd2000930c24009afb07001e0037006c
:1021f0000400e0000100320001f0a20042be2c0009
:102200006309240093fb070024003700f4ff2f002c
:10221000f5f72700840f5100858f59000300360021
:102220000001be008bfb07001d00370068815700ce
:10223000200107006011b80063016000e10f510048
:10224000e08f59000a003200e20f5100e08f590080
:102250000b003200e00f5100e08f59000d003a00f2
:102260004fb89700dfb89700e40007000c00370074
:102270004fb89700dfb8970001f0a20007003700c1
:102280004fb89700dfb89700dc00070001f0a2000c
:10229000030037004fb89700dfb897005e010700d2
:1022a0000080fa00000006000400fa00889fbe00cb
:1022b0008a9fbe000004be004709de000300200024
:1022c000f20fb200f207b100f60f510030003c00ef
:1022d0000200e0001c003500faff2f00fb07200081
:1022e0000201e900030033008b85d1000a85d30089
:1022f000fbff37008b8164000a016000e00f510092
:10230000e08f5900220032000200200003b82700ad
:1023100059fb0700a0bf9f00b1bf9f00e00f540012
:10232000e08f5c0002003d000a0444008b844c00f6
:102330000a85ea008b85ea008b8064000a0064004d
:102340000004be00110037000200200003b827007f
:1023500049fb0700a0bf9f00b1bf9f00e00f5400e2
:10236000e08f5c00020035006044b80007003700d1
:102370000800440089804c00e00f5000e08f5800b6
:10238000020032000800200009f82b000800be00ff
:102390004f05be004f04be000080fa00000006009a
:1023a0000800fa00889fbe000004be000001be00c5
:1023b0008300780001f0a10008007800a4fd20004f
:1023c00095f42300840f5000858f580018003e00bc
:1023d000f2ff2f00f3972300820f5000838f5800e5
:1023e00011003e00f2ff2f00f3072000820f500083
:1023f000838f580005003e000200200003382000b3
:102400000800be00e0fc07000400370002002000c6
:1024100003b827000800be0017fb0700c0bf9f00dd
:10242000d1bf9f00710037000800be006800370070
:102430004f49de0003002000143d2500b5072400ad
:10244000840f5000858f58001f003e0034be2c00c2
:1024500065012400840f5000858f58000e003e0057
:102460000200e00005003200b2fd200093fc2300d2
:102470000800be0000fb070059003700b2fd200035
:1024800093fc23000800be00f2fa07005b0007007f
:102490000004be00550037000200e00005003200d5
:1024a000b2fd2000930424000800be00f2fa0700e9
:1024b00046003700b2fd2000930424000800be004f
:1024c000e4fa070041003700541d2300250e2400c4
:1024d000840f5000858f58001d003e00f4dd2e0053
:1024e000f50a2400840f5000858f58000c003e0030
:1024f0000200e0000500320042be2c006309240007
:102500000800be00dcfa0700e0ff370042be2c00e6
:10251000630924000800be00cefa0700300037002f
:102520000200e00005003200b2fd2000930c240000
:102530000800be00d0fa070025003700b2fd2000d9
:10254000930c24000800be00c2fa070020003700e8
:10255000f2ff2f00f3f72700820f5000838f5800ff
:10256000040036000801be000800be00b9fa0700ea
:10257000c7ff37006c8157000800be004d00070000
:102580006011b80063016000e10f5100e08f590055
:1025900009003200e20f5100e08f590009003200bb
:1025a000e00f5100e08f59000b003a002fb8970060
:1025b000bfb89700060037002fb89700bfb8970044
:1025c000b2ff37002fb89700bfb8970001f0a20004
:1025d00091000700aeff37002fb89700bfb89700f3
:1025e000060007000004be0009f0a2000800be00bb
:1025f0004f04be000080fa0000000600889fbe0065
:102600008a9fbe008c9fbe000001be005efc0700da
:102610000004be000001be005bfc07000005be0018
:102620000200200003f02b000800be0056fc07004b
:102630000200200003f823008ffa07000006be0006
:10264000f2a92a00a3d223000a00be004efc070014
:102650000001be000c00be0087fa07000006be00a5
:102660000801be000a00be0047fc07000005be00ce
:1026700072a12900c37c23000800be0042fc0700b1
:10268000f243200063ab230072fa07000001be0092
:102690000a00be003cfc07000001be000c00be00aa
:1026a00075fa07004f06be004f05be004f04be007e
:1026b000000006000800fa00889fbe008a9fbe0046
:1026c0008c9fbe000005be00020478000001be0021
:1026d0008300780001f0a1000a007800a2fd20002c
:1026e00093dc2400820f5000838f58001d003e00b1
:1026f00032982f0023f223000a00be0022fc0700bc
:102700000200200003b424005bfa0700020020004e
:1027100003b424004ffa07000006be0012fa0700b7
:1027200080047800a2fd200093fc23000c00be0072
:1027300015fc07000001be000a00be0045fa0700b4
:102740000005be00325a2800832823000c00be007a
:102750000dfc07000001be000a00be003dfa0700a4
:1027600026003700f2ff2f00f3f72700820f5000fa
:10277000838f5800060036000a01be000a00be0022
:1027800034fa0700008cbe008004eb001c00370008
:102790000a00be00500007000005be0032982f005e
:1027a00023f22300f8fb07000200200003f02300bf
:1027b00031fa0700540007000203be000002be0009
:1027c000e4b79f00f5b79f0086bf9f0097bf9f00ab
:1027d00090fd070032982f0023f223000bfb070027
:1027e0000001be000a00be001afa07006000b8002f
:1027f0002004980031049800efb49700008cbe00cc
:10280000090078004f06be004f05be004f04be0011
:102810000080fa0000000600889fbe008a9fbe006c
:102820008c9fbe000005be000001be00d6fb070065
:102830000004be000a01be00d3fb07000006be0074
:102840004288280083c023000800be00cefb07009a
:10285000b2aa2a00a3e22300fef907000001be008d
:102860000c00be00c8fb07000001be000a00be004d
:1028700001fa07000005be000801be000800be0006
:10288000c1fb07000001be000c00be00befb07003c
:102890000006be00c2c32600636323000800be001a
:1028a000b9fb0700f27c200003952300e9f907003b
:1028b0000001be000c00be00b3fb07000001be001b
:1028c0000a00be00ecf907004f06be004f05be002f
:1028d0004f04be00000006006022b8006033b8005c
:1028e0000002be00f0ff2f00f1ff2f00f2ff2f00cb
:1028f000f3ff270000006200818062000201630094
:1029000083816300000006000003be00bcf90700dd
:102910006011b8000470a70007f0a1006509b100bc
:102920001b00320012003500860220000628e1005c
:1029300008003500f3ff2700f2ff2f006110b900f7
:102940000700e00018003b00030028006000b8000a
:10295000020005000000400081804800020149009b
:10296000838149008502e900faff3a000800370038
:10297000f88f420002003c008000eb0000000500e0
:102980008100d1000080d3008502e800fcff3a00fe
:102990000700e00004003b0060001000e080180029
:0c29a00060011900e08119000000060031
:020000040000fa
:1029ac000600fa0010079800210798000000eb00c1
:1029bc00000f78000a0037000021ef0005e1a800a5
:1029cc0001003700000000009e009000000880000d
:1029dc00808f5000fbff3e0005e1a9001e0fe800b0
:1029ec002e0090009e007800808f5000f2ff350082
:1029fc000080fa00000006000000fa000e0ea8008d
:102a0c00000ea80010c3b30024e3b7001119800016
:102a1c00f0ff210000806000101988002043a800fe
:102a2c002083a90001198000000e20000100700015
:102a3c000019880031198000f09f2f000080600081
:102a4c00301988002703a80001198000f0cf2f004f
:102a5c00008060000090a000001988002143a800ad
:102a6c002119800000f0210001007000201988005d
:102a7c003303a9001119800030f82f00008060008a
:102a8c00101988000080fa00000006000000fa000f
:102a9c000421a90004c1a90021088000f0fc2f002a
:102aac00008060000040a000200888000021ef009a
:102abc000080fa00000006000000fa00313a8000a5
:102acc0000e02f00808060002003200001007000d7
:102adc00303a8800213a800000fe2f000080600010
:102aec00203a8800213a8000f0f32f00008060002b
:102afc00203a88000080fa00000006000000fa006e
:102b0c00002ea9000e2ea900100ea9001e0ea90061
:102b1c00102ea9001e2ea900104ea9001e4ea900b1
:102b2c0011eea8000080fa00000006001600fa0062
:102b3c00200f9800140ea8000000eb00000f780086
:102b4c0008003700ae0890001e0078008088de0078
:102b5c001e0078000000400064004000013778003f
:102b6c001e0fe8001e007800e70f5000f5ff340040
:102b7c000000eb00100798001b0037001e009000af
:102b8c0000004000640040006e00780000407800b7
:102b9c00614060000080fb006100600000004000ac
:102bac00217080000110a1000100700020708800cd
:102bbc00144ea800110020002003200078ff07000d
:102bcc00144ea900042ea900142ea80011002000f8
:102bdc002003200072ff0700142ea9001e00900095
:102bec000000e800100798001e009000e70f50004e
:102bfc00e2ff3400140ea9000080fa000000060069
:102c0c000000fa0021a8a800c1e8a900c3e8a800a8
:102c1c000080fa00000006000404fa00a6ff07007a
:102c2c009aff0700b5ff070073ff0700f4ff0700ca
:102c3c000000eb00000f7800144ea900140ea80041
:102c4c00144ea900142ea900640047000001eb00eb
:102c5c0080007800800020007ef60700010037001d
:102c6c0000000000a17080000000280000806000bf
:102c7c000000e000faff3200023cef00008021006f
:102c8c0000e0880021e3a8000000000011e08000b3
:102c9c00f00f2000808f5000fcff3a0064004700ca
:102cac0003f02f000001780001802100800020003b
:102cbc00e4f7070001802100800020006af807007b
:102ccc00402020000e0040000020b00000017800e1
:102cdc00018021000010200081f807000000eb00ab
:102cec00000f78000000eb00100798000f00370071
:102cfc00412020001e009000000040000080400099
:102d0c006e0078009e0f500005003400412020001a
:102d1c001e00900000004000008040006e0f780004
:102d2c001e0090000000e800100798009e00900024
:102d3c00f00f2000808f5000edff340005003700ad
:102d4c001e007800cf00de00008040000080d10023
:102d5c00000f7800f00f20009e007800808f50004c
:082d6c00f7ff3c00bfff370038
:020000040000fa
:102d7400001800000004000080000000001c000097
:102d8400020000008200000000180000021c000085
:102d94000200000080000000061c00000200000089
:102da4008200000000040000041c00000200000077
:082db400800000000000000097
:020000040000fa
:082dbc0030e088000000060071
:020000040000fa
:04afe000cfff00009f
:020000040000fa
:04afe400ffff00006b
:020000040000fa
:04afe8007fff0000e7
:020000040000fa
:04afec005fff000003
:020000040000fa
:04aff00039ff000025
:020000040000fa
:04aff400ffffff005c
:00000001FF
